:100000000C9480000C94D9010C94D9010C94D90162
:100010000C94D9010C94D9010C94D9010C94D901F8
:100020000C94D9010C94D9010C94D9010C94D901E8
:100030000C94D9010C94D9010C94D9010C94D901D8
:100040000C94D9010C94D9010C94B3000C94D901EF
:100050000C94D9010C94D9010C94D9010C94D901B8
:100060000C94D9010C94D9010C94D9010C94D901A8
:100070000C94D9010C94D9010C94D9010C94D90198
:100080000C94D9010C94D9010C94D9010C94D90188
:100090000C94D9010C94D9010C94D9010C94D90178
:1000A0000C94D9010C94D9010C94D9010C94D90168
:1000B0000C94D9010C94D9010C94D9010C94D90158
:1000C0000C94D9010C94D9010C94D9010C94D90148
:1000D0000C94D9010C94D9010C94D9010C94D90138
:1000E0000C94D9010C94D9010C94D9010C94D90128
:1000F0000C94D9014000400E80400E400F0003C018
:10010000809101108F7C80608068809301101124A1
:100110001FBECFEFCDBFDFE7DEBFE4EFF0E041E091
:1001200019C0B791A79137912791079107FD0EC08C
:1001300097918791EF01F92FE82F0BBF07900D9250
:10014000A217B307D9F7FE011BBE04C01D92A21768
:10015000B307E1F7E030F40721F70E940D010C949A
:06016000A301F894FFCF9B
:100166001F920F920FB60F9211240BB60F922F9378
:100176003F934F935F936F937F938F939F93AF9329
:10018600BF93EF93FF9380910B0987FF1CC080916B
:100196000B0981FD0AC080910D09E0910440F091A0
:1001A6000540309769F009950BC0E0910240F09147
:1001B6000340309711F0099501C080E080930D0946
:1001C60083E080930A0980910B0986FF10C0809115
:1001D6000B0980FF02C083E008C0E0910040F09167
:1001E6000140309709F0099586E080930A09FF914E
:1001F600EF91BF91AF919F918F917F916F915F9199
:100206004F913F912F910F900BBE0F900FBE0F9005
:040216001F90189588
:10021A00CF93DF93CDB7DEB76097CDBFDEBF0E9425
:10022A00C4010E94AE0180E40E947B0180E090E05C
:10023A00E1E0F0E0EC0FFD1FE80FF91F10820196D4
:10024A0080319105A9F760E1CE0101960E94B601BD
:10025A0068E0CE0109960E94BD018FE591E00E94F7
:10026A00CA0180E491E00E94CF0180E991E00E94F6
:06027A00D4017894FFCFCF
:1002800081E080930D4090910C4080910A40981736
:1002900078F480910C40E0910640F0910740E80F1F
:1002A000F11D808190910C409F5F90930C400895C8
:0E02B00080910A408F5F80930C4080E008959B
:1002BE0090910E40911113C020910C4090910B40E3
:1002CE00291788F490910C40E0910840F091094074
:1002DE00E90FF11D808380910C408F5F02C0109258
:0802EE000E4080930C400895BE
:1002F6001092044010920540109202401092034062
:100306001092004010920140E0E0F9E091E0928303
:0A031600880F848781EE8187089527
:1003200080910D40882349F080910C40882329F06A
:1003300080910C40815080930C4081E080930E406E
:0603400010920D4008952B
:10034600EC010E94DE010E94DD01CE010E94DF0168
:06035600CE010E94DB0154
:10035C00E0E0F4E08CE0818398E093878487089553
:0E036C00809306409093074060930A400895E6
:0E037A00809308409093094060930B400895D3
:0C0388009CE088ED84BF9093680008950D
:0A0394008093044090930540089503
:0A039E0080930240909303400895FD
:0A03A80080930040909301400895F7
:0403B2000C940000A7
:0403B6000E94B100F0
:0203BA000895A4
:0203BC000895A2
:0203BE000895A0
:0103C000013B
:02000004008278
:090000000006000000C80C00001D
:02000004008377
:040000005CC5C55CBA
:00000001FF
