:100000000C9483000C94BC020C94BC020C94BC02B3
:100010000C94BC020C94BC020C94BC020C94BC0268
:100020000C94BC020C94BC020C94BC020C94BC0258
:100030000C94BC020C94BC020C94BC020C94BC0248
:100040000C94BC020C94BC020C94B6000C94BC0240
:100050000C94BC020C94BC020C94BC020C94BC0228
:100060000C94BC020C94BC020C94BC020C94BC0218
:100070000C94BC020C94BC020C94BC020C94BC0208
:100080000C94BC020C94BC020C94BC020C94BC02F8
:100090000C94BC020C94BC020C94BC020C94BC02E8
:1000A0000C94BC020C94BC020C94BC020C94BC02D8
:1000B0000C94BC020C94BC020C94BC020C94BC02C8
:1000C0000C94BC020C94BC020C94BC020C94BC02B8
:1000D0000C94BC020C94BC020C94BC020C94BC02A8
:1000E0000C94BC020C94BC020C94BC020C94BC0298
:1000F0000C94BC024000400A80400A400B00058678
:10010000400B400F8000809101108F7C80608068E0
:100110008093011011241FBECFEFCDBFDFE7DEBFFC
:10012000E4EFF0E041E019C0B791A7913791279132
:10013000079107FD0EC097918791EF01F92FE82FE6
:100140000BBF07900D92A217B307D9F7FE011BBE94
:1001500004C01D92A217B307E1F7E530F40721F7B9
:0C0160000E944D010C94B102F894FFCFF6
:10016C001F920F920FB60F9211240BB60F922F9372
:10017C003F934F935F936F937F938F939F93AF9323
:10018C00BF93EF93FF93CF93DF930F92CDB7DEB76F
:10019C0080E099E0FC0183858823BCF5198280E01E
:1001AC0099E0FC018385882F90E0827099279595C2
:1001BC008795892B99F480E099E0FC0185858983EA
:1001CC008091004090910140892BD1F0209100400A
:1001DC00309101408981F901099512C0809102404A
:1001EC0090910340892B39F080910240909103400B
:1001FC00FC010995898380E099E02981FC01258720
:10020C0080E099E023E0FC01228780E099E0FC018A
:10021C008385882F90E080749927892B09F180E0E1
:10022C0099E0FC018385882F90E081709927892BB8
:10023C0031F080E099E023E0FC01228711C080912D
:10024C00044090910540892B31F0809104409091AD
:10025C000540FC01099580E099E026E0FC0122872D
:10026C0000000F90DF91CF91FF91EF91BF91AF9173
:10027C009F918F917F916F915F914F913F912F91B2
:0E028C000F900BBE0F900FBE0F901F90189595
:10029A00CF93DF93CDB7DEB76197CDBFDEBF0E94A4
:1002AA00A4020E94540280E40E94E10119820DC056
:1002BA008981882F90E09E012E5F3F4F820F931F06
:1002CA00FC01108289818F5F89838981803180F363
:1002DA00CE01029660E10E942202CE0102960896A1
:1002EA0068E00E943B0286E891E00E946B0285EB7F
:1002FA0091E00E947E0288E092E00E949102789446
:02030A00FFCF23
:10030C00CF93DF930F92CDB7DEB7898390910A40DC
:10031C0081E089278823C9F090910C4080910D4091
:10032C009817C0F4209106403091074080910C4002
:10033C00882F90E0820F931F2981FC0120838091EC
:10034C000C408F5F80930C4005C010920A4089814D
:0E035C0080930C4000000F90DF91CF91089528
:10036A00CF93DF930F92CDB7DEB781E080930B4036
:10037A00198290910C4080910E40981798F4209120
:10038A0008403091094080910C40882F90E0820FFC
:10039A00931FFC018081898380910C408F5F809339
:1003AA000C4005C080910E408F5F80930C4089817C
:0803BA000F90DF91CF9108952F
:1003C200CF93DF930F92CDB7DEB7898310920040AF
:1003D2001092014010920240109203401092044089
:1003E2001092054080E099E021E0FC01228380E048
:1003F20099E02981220FFC01248780E099E021EE17
:0E040200FC01218700000F90DF91CF9108953B
:10041000CF93DF93CDB7DEB780910B40882349F0AF
:1004200080910C40882329F080910C40815080936A
:100430000C4081E080930A4010920B400000DF9155
:04044000CF910895BB
:10044400CF93DF9300D00F92CDB7DEB789839A8321
:100454006B8389819A8180930840909309408B81B2
:1004640080930E4000002396CDBFDEBFDF91CF9175
:020474000895E9
:10047600CF93DF9300D00F92CDB7DEB789839A83EF
:100486006B8389819A8180930640909307408B8184
:1004960080930D4000002396CDBFDEBFDF91CF9144
:0204A6000895B7
:1004A800CF93DF93CDB7DEB780E094E02CE0FC017A
:1004B800218380E094E028E0FC01238780E094E039
:0E04C8002CE0FC0124870000DF91CF91089505
:1004D600CF93DF9300D0CDB7DEB789839A83898126
:1004E6009A81809300409093014000000F900F90F6
:0604F600DF91CF91089593
:1004FC00CF93DF9300D0CDB7DEB789839A83898100
:10050C009A81809302409093034000000F900F90CB
:06051C00DF91CF9108956C
:10052200CF93DF9300D0CDB7DEB789839A838981D9
:100532009A81809304409093054000000F900F90A1
:06054200DF91CF91089546
:10054800CF93DF93CDB7DEB788ED9CE084BF90935F
:0A05580068000000DF91CF910895C4
:10056200EC010E94C1020E94C002CE010E94C2029E
:06057200CE010E94BE0252
:040578000C940000DF
:04057C000E94B40025
:020580000895DC
:020582000895DA
:020584000895D8
:010586000173
:02000004008278
:090000000006000000C80C00001D
:02000004008377
:040000005CC5C55CBA
:00000001FF
