:100000000C947D000C944D020C944D020C944D0206
:100010000C944D020C944D020C94FB000C944D0278
:100020000C944D020C944D020C944D020C944D0214
:100030000C944D020C944D020C944D020C944D0204
:100040000C944D020C944D020C944D020C944D02F4
:100050000C944D020C944D020C944D020C944D02E4
:100060000C944D020C944D020C944D020C944D02D4
:100070000C944D020C944D020C944D020C944D02C4
:100080000C944D020C944D020C944D020C944D02B4
:100090000C944D020C944D020C944D020C944D02A4
:1000A0000C944D020C944D020C944D020C944D0294
:1000B0000C944D020C944D020C944D020C944D0284
:1000C0000C944D020C944D020C944D020C944D0274
:1000D0000C944D020C944D020C944D020C944D0264
:1000E0000C944D020C944D020C944D020C944D0254
:1000F0000C944D02400040068000809101108F7CDE
:10010000806080688093011011241FBECFEFCDBFA7
:10011000DFE7DEBFE4EFF0E040E019C0B791A79160
:1001200037912791079107FD0EC097918791EF01B5
:10013000F92FE82F0BBF07900D92A217B307D9F73D
:10014000FE011BBE04C01D92A217B307E1F7E93FF1
:10015000F40721F70E94C0010C941402F894FFCF19
:10016000EF92FF920F931F93CF93DF930F92CDB730
:10017000DEB769837A01022F60E00E945101182FD7
:10018000882381F161E0CE0101960E947401182F4D
:10019000811104C083E08093040924C08091070981
:1001A00081608093070981E08093040980910509AB
:1001B00085FD0BC08091050982FD07C0809105096E
:1001C00083FD03C00E94400289F70E94D501882365
:1001D00029F083E08093040910E004C0602FC70178
:1001E0000E942B01812F0F90DF91CF911F910F91D2
:0601F000FF90EF9008955E
:1001F6001F920F920FB60F9211240BB60F922F93E8
:100206003F934F935F936F937F938F939F93AF9398
:10021600BF93EF93FF9381E080935301E0910040F9
:10022600F0910140309709F00995FF91EF91BF9148
:10023600AF919F918F917F916F915F914F913F9178
:100246002F910F900BBE0F900FBE0F901F90189519
:1002560020E220930509FC0190E082E09617D1F098
:100266002091050925FD0DC02091050922FD09C033
:100276002091050923FD05C020910509237023302F
:1002860079F72091080921939F5F691739F38093C5
:0C0296000409E4CF87E080930409089578
:1002A2009091050993709330D1F0880F682B609379
:1002B20007098091050985FD0BC08091050982FD22
:1002C20007C08091050983FD03C00E94400289F79F
:1002D2000E94D501882329F083E08093040980E0FD
:0602E200089581E008957B
:1002E800282FFC018E2F821B8617C0F481918093E2
:1002F80008098091050985FD0BC08091050982FDDB
:1003080007C08091050983FD03C00E94400289F758
:100318008091050984FFE6CF80E0089581E0089583
:100328001092004010920140E0E4F1E080E8808300
:1003380081E08583878328E237E222873387858BAC
:0E034800828B89E3808B8081816080830895A1
:100356001F93CF93DF93EB01142F60E00E945101AE
:10036600882339F0612FCE010E94740193E09093A7
:0A0376000409DF91CF911F91089553
:100380000E943A020E9445020E9494010E94490282
:1003900078948FEF0E94FD018AEA0E9409028895F5
:0A03A0006FEF84E00E94F001FACF35
:1003AA00809105098C7141F490910509937081E05F
:0C03BA00933019F080E0089581E0089570
:1003C600E0E0F9E084E08083118281E082839DEFA2
:0A03D60095839FE0968383830895CA
:1003E000CF93DF93D82FC62F0E941F02682F6C2750
:0A03F0008D2FDF91CF910C942902AC
:1003FA00CF93C82F83E00E941F02C0956C2F6823F9
:08040A0083E0CF910C9429025C
:10041200CF93C82F84E00E941F02682F6C2B84E0C8
:06042200CF910C942902A9
:10042800EC010E9452020E945102CE010E94530226
:06043800CE010E944F02FC
:10043E0021E042E050E4682F80E60E94B0008091F7
:04044E0002400895CB
:10045200E2E0F0E48083618342E0BF0180E60C9435
:02046200AB01EC
:10046400E0E0F4E08CE0818398E09387848708954A
:0C0474009CE088ED84BF90936800089520
:0A0480008091050983708330089510
:08048A0083E080935000089507
:080492000E94E3010C94320208
:04049A000C940000BE
:04049E000E94AE000A
:0204A2000895BB
:0204A4000895B9
:0204A6000895B7
:02000004008278
:090000000006000000C80C00001D
:02000004008377
:040000005CC5C55CBA
:00000001FF
