:100000000C947D000C94FC030C94FC030C94FC03F6
:100010000C94FC030C94FC030C943E020C94FC0323
:100020000C94FC030C94FC030C94FC030C94FC0354
:100030000C94FC030C94FC030C94FC030C94FC0344
:100040000C94FC030C94FC030C94FC030C94FC0334
:100050000C94FC030C94FC030C94FC030C94FC0324
:100060000C94FC030C94FC030C94FC030C94FC0314
:100070000C94FC030C94FC030C94FC030C94FC0304
:100080000C94FC030C94FC030C94FC030C94FC03F4
:100090000C94FC030C94FC030C94FC030C94FC03E4
:1000A0000C94FC030C94FC030C94FC030C94FC03D4
:1000B0000C94FC030C94FC030C94FC030C94FC03C4
:1000C0000C94FC030C94FC030C94FC030C94FC03B4
:1000D0000C94FC030C94FC030C94FC030C94FC03A4
:1000E0000C94FC030C94FC030C94FC030C94FC0394
:1000F0000C94FC03400040068000809101108F7C2E
:10010000806080688093011011241FBECFEFCDBFA7
:10011000DFE7DEBFE4EFF0E040E019C0B791A79160
:1001200037912791079107FD0EC097918791EF01B5
:10013000F92FE82F0BBF07900D92A217B307D9F73D
:10014000FE011BBE04C01D92A217B307E1F7E93FF1
:10015000F40721F70E9457030C94F103F894FFCFA2
:10016000CF93DF93CDB7DEB72597CDBFDEBF8983B1
:100170006A834B835C832D8360E089810E94E50163
:10018000982F81E08927882311F080E059C0CE01A3
:10019000029661E00E948901982F81E089278823D7
:1001A00039F080E099E023E0FC01248380E048C03E
:1001B00080E099E020E039E0F90127812160FC012D
:1001C000278380E099E021E0FC012483000080E0A7
:1001D00099E0FC018581882F90E080729927892B16
:1001E000F1F480E099E0FC018581882F90E0847033
:1001F0009927892BA1F480E099E0FC018581882F63
:1002000090E088709927892B51F480E099E0FC01F7
:100210008581882F90E0837099270397C1F60E940B
:100220000303882339F080E099E023E0FC01248374
:1002300080E006C08B819C816D810E94260181E057
:0C0240002596CDBFDEBFDF91CF91089561
:10024C00CF93DF9300D000D0CDB7DEB78A839B83EA
:10025C006C83198280E099E020E2FC01258342C086
:10026C00000080E099E0FC018581882F90E080728D
:10027C009927892BF1F480E099E0FC018581882F86
:10028C0090E084709927892BA1F480E099E0FC011F
:10029C008581882F90E088709927892B51F480E014
:1002AC0099E0FC018581882F90E083709927039752
:1002BC00C1F68981882F90E02A813B81820F931FA0
:1002CC0020E039E0F9012085FC01208389818F5FD2
:1002DC00898399818C81981729F080E099E022E03C
:1002EC00FC01248399818C81981708F4B9CF80E0A4
:1002FC0099E027E0FC01248300002496CDBFDEBFEB
:06030C00DF91CF9108957E
:10031200CF93DF9300D000D0CDB7DEB78A839B8323
:100322006C83198245C080E099E02981222F30E058
:100332004A815B81240F351FF9012081FC0120874E
:10034200000080E099E0FC018581882F90E08072B6
:100352009927892BF1F480E099E0FC018581882FAF
:1003620090E084709927892BA1F480E099E0FC0148
:100372008581882F90E088709927892B51F480E03D
:1003820099E0FC018581882F90E08370992703977B
:10039200C1F680E099E0FC018581882F90E08071B0
:1003A2009927892B11F080E009C089818F5F8983A9
:1003B20099818C81981708F4B6CF81E02496CDBF3D
:0803C200DEBFDF91CF91089529
:1003CA00CF93DF9300D0CDB7DEB789836A8380E00D
:1003DA0099E0FC018581882F90E083709927039723
:1003EA0011F480E041C080E099E02981222F30E0B9
:1003FA00220F331F322F2A81232BFC01278300006F
:10040A0080E099E0FC018581882F90E0807299272D
:10041A00892BF1F480E099E0FC018581882F90E036
:10042A0084709927892BA1F480E099E0FC018581E9
:10043A00882F90E088709927892B51F480E099E001
:10044A00FC018581882F90E0837099270397C1F674
:10045A000E940303882339F080E099E023E0FC013D
:10046A00248380E001C081E00F900F90DF91CF914B
:02047A000895E3
:10047C001F920F920FB60F9211240BB60F922F935F
:10048C003F934F935F936F937F938F939F93AF9310
:10049C00BF93EF93FF93CF93DF93CDB7DEB780E499
:1004AC0091E021E0FC01238B809100409091014070
:1004BC00892B31F08091004090910140FC0109950D
:1004CC000000DF91CF91FF91EF91BF91AF919F9180
:1004DC008F917F916F915F914F913F912F910F90E1
:0C04EC000BBE0F900FBE0F901F901895D4
:1004F800CF93DF93CDB7DEB7109200401092014042
:1005080080E491E020E8FC01208380E491E021E090
:10051800FC01258380E491E021E0FC01278380E44D
:1005280091E028E237E2FC012287338780E491E0FA
:1005380021E0FC01258B80E491E021E0FC01228B85
:1005480080E491E029E3FC01208B80E491E020E441
:1005580031E0F90120812160FC0120830000DF9156
:04056800CF91089592
:10056C00CF93DF93CDB7DEB72597CDBFDEBF8A83A0
:10057C006B837C834D8360E08A810E94E501982F18
:10058C0081E08927882311F080E00CC08B819C814D
:10059C006D810E948901898380E099E023E0FC0150
:1005AC00248389812596CDBFDEBFDF91CF9108953D
:1005BC00CF93DF93CDB7DEB780E099E024E0FC0168
:1005CC00208380E099E0FC01118280E099E021E039
:1005DC00FC01228380E099E02DEFFC01258380E073
:1005EC0099E02FE0FC01268380E099E021E0FC01FA
:0A05FC0023830000DF91CF910895E2
:10060600CF93DF93CDB7DEB780E099E0FC0185811B
:10061600882F90E08C7199271816190654F080E0FF
:1006260099E0FC018581882F90E0837099270397D4
:0E06360011F481E001C080E0DF91CF910895C2
:10064400CF93DF9300D00F92CDB7DEB78A836B834D
:100654008A810E94B803898399818B818927898340
:1006640069818A810E94700300002396CDBFDEBF9A
:06067400DF91CF91089513
:10067A00CF93DF9300D0CDB7DEB78A8383E00E94A1
:10068A00B80389838A81982F9095898189238983E0
:10069A00698183E00E94700300000F900F90DF9140
:0406AA00CF9108954F
:1006AE00CF93DF93CDB7DEB70E94CB030E94D80362
:1006BE000E947C020E94E50378948FEF0E943D0316
:1006CE008AEA0E94890388956FEF84E00E942203D4
:0206DE00FACF51
:1006E000CF93DF9300D0CDB7DEB789836A8389814A
:1006F000809302408A818093034042E062E070E48C
:1007000080E60E94B60200000F900F90DF91CF911B
:0207100008954A
:10071200CF93DF9300D0CDB7DEB78A8384E00E9407
:10072200B803898399818A81892B8983698184E0CD
:100732000E94700300000F900F90DF91CF910895F7
:10074200CF93DF93CDB7DEB780E094E02CE0FC01DD
:10075200218380E094E028E0FC01238780E094E09C
:0E0762002CE0FC0124870000DF91CF91089568
:10077000CF93DF930F92CDB7DEB7898321E042E0BC
:1007800050E4698180E60E94B000809102400F90A1
:06079000DF91CF910895F6
:10079600CF93DF93CDB7DEB788ED9CE084BF90930F
:0A07A60068000000DF91CF91089574
:1007B000CF93DF93CDB7DEB780E590E023E0FC0177
:0A07C00020830000DF91CF9108951F
:1007CA00CF93DF93CDB7DEB70E94DE020E94A1036A
:0807DA000000DF91CF910895AA
:1007E200EC010E9401040E940004CE010E94020456
:0607F200CE010E94FE038F
:0407F8000C9400005D
:0407FC000E94AE00A9
:02080000089559
:02080200089557
:02080400089555
:02000004008278
:090000000006000000C80C00001D
:02000004008377
:040000005CC5C55CBA
:00000001FF
